:020000040800F2
:1000000048050020F52C0008592B00085B2B000840
:100010005D2B00085F2B0008612B0008000000002A
:10002000000000000000000000000000632B00083A
:10003000652B000800000000672B0008692B0008F2
:10004000112D0008152D0008192D00081D2D000880
:10005000212D0008252D0008292D00082D2D000830
:10006000312D0008352D0008392D00083D2D0008E0
:10007000412D0008452D0008492D00084D2D000890
:10008000712B00087B2B0008512D0008552D00080E
:10009000592D00085D2D0008612D0008652D000810
:1000A000692D00086D2D0008712D0008B52B000882
:1000B000752D0008792D00087D2D0008852B00087E
:1000C0008F2B0008812D0008852D0008892D000840
:1000D0008D2D0008912D0008952D0008992D000800
:1000E000992B00089D2D0008A12D00082DE9F0474F
:1000F0000400002520684668E76A94F83E8094F87A
:100100003D904046C0B2102803D04046C0B24028BF
:1001100070D12068806905002068D0F814A05FEADB
:10012000CA700CD4B7F52A0F02D0B7F12A4F01D10B
:10013000012000E00020C0B2002840F0B28050460C
:10014000C00708D5B00506D5200001F013F820003F
:1001500000F04CFBA5E05FEA0A7005D5B00503D5B9
:10016000200000F09CFB9CE05FEA8A7005D5B0059A
:1001700003D5200000F0ACFB93E0680721D5206890
:100180004068000500F18D805FEA0A6008D57005BF
:1001900006D55FEA4A7003D4200000F000F980E041
:1001A0005FEA4A707DD5B0057BD54046C0B21028C5
:1001B00003D1200000F067F973E0200000F0AAF9F5
:1001C0006FE02068406800056BD45FEA4A6008D59C
:1001D000700506D55FEA4A7003D4200000F000FAEB
:1001E0005FE05FEA4A705CD5B0055AD5200000F0A8
:1001F00069FA56E0206C002803D02068D0F814A0DB
:1002000005E02068806905002068D0F814A05FEA46
:100210008A700CD5B0050AD5206C002802D0206861
:10022000806905002900200000F0E8FC39E05FEA61
:10023000CA6005D5B00503D5200000F00DFD30E003
:100240004846C0B2212803D04846C0B2292814D15C
:100250005FEA0A6008D5700506D55FEA4A7003D4E4
:10026000200000F061FC1CE05FEA4A7019D5B0057F
:1002700017D5200000F07FFC13E05FEA4A6008D544
:10028000700506D55FEA4A7003D4200000F081FCB7
:1002900007E05FEA4A7004D5B00502D5200000F0FF
:1002A0009FFCBDE8F0872DE9F84F06003068D0F8D4
:1002B00014903068D0F804A0002596F83EB05FEAAC
:1002C000C9500ED55FEACA500BD555F001057FF431
:1002D0008070316848613068006850F400403168CF
:1002E00008605FEA895008D55FEACA5005D555F025
:1002F00002057FF40070316848615FEA495038D5E3
:100300005FEACA5035D58DF800B0708D040096F8BC
:100310003D000700306B80469DF80000202814D176
:10032000002C12D13800C0B221280AD03800C0B247
:10033000292806D03800C0B2282806D1B8F1210FEC
:1003400003D1300000F055FD13E07FF48060316888
:10035000486155F004055846C0B2102803D05846ED
:10036000C0B2402805D13068006850F40070316890
:1003700008605FEA095008D55FEACA5005D555F014
:1003800008057FF4006031684861002D05D0306CAD
:1003900028433064300000F07EFDBDE8F18FF8B5F1
:1003A000040094F83D5094F83E60E76A208D0028E0
:1003B00040D12800C0B221283CD1082F17D0202FCF
:1003C00015D0DFF8680C874211D02068406830F4FF
:1003D000E0602168486011202063002084F83E001E
:1003E000202084F83D00200000F0D2FE4AE0206882
:1003F000406830F4E060216848602068006850F48C
:1004000000702168086000202063202084F83D00EF
:1004100094F83E00402806D1002084F83E002000D9
:1004200000F0B7FE2EE0002084F83E00200000F02F
:10043000AFFE27E02800C0B2212807D03000C0B2AC
:1004400040281FD12800C0B222281BD1608D00286F
:1004500006D12068406830F480602168486011E06F
:1004600094F83E00402803D1200000F053F809E042
:10047000606A007821680861606A401C6062608D73
:10048000401E6085F1BD38B50400E56A94F83D0072
:1004900021283ED1608D00280AD0606A007821684A
:1004A0000861606A401C6062608D401E608530E0BB
:1004B000082D17D0202D15D0DFF8700B854211D0F4
:1004C0002068406830F4E0602168486011202063B3
:1004D000002084F83E00202084F83D00200000F039
:1004E00057FE16E02068406830F4E06021684860FC
:1004F0002068006850F400702168086000202063C4
:10050000202084F83D00002084F83E00200000F008
:100510003FFE31BD38B5040094F83D50206D0028F1
:1005200014D1E06C012807D1A06CC0B22168086129
:10053000206D801C206552E0A06C80B2000AC0B221
:1005400021680861206D401C206548E0206D01286D
:1005500007D1A06CC0B221680861206D401C2065E5
:100560003DE0206D02283AD12800C0B2222806D1F1
:100570002068006850F48070216808602FE0608D6A
:1005800000280ED02800C0B221280AD1606A007865
:1005900021680861606A401C6062608D401E608551
:1005A0001DE0608D00281AD12800C0B2212816D184
:1005B0002068406830F4E060216848602068006886
:1005C00050F400702168086000202063202084F827
:1005D0003D00002084F83E00200000F0DAFD31BD2F
:1005E00038B5050095F83D0022286AD16C8D042CA1
:1005F00013D328680069696A0870686A401C6862D9
:10060000688D401E6885688D03285AD12868406827
:1006100030F480602968486053E0E86A022850D0CE
:10062000012C01D0002C4CD1280000F07CFD0028CA
:100630002ED12868006830F4806029680860286836
:10064000406830F4E0602968486028680069696A99
:100650000870686A401C6862688D401E68852020AA
:1006600085F83D0095F83E00402808D1002085F827
:100670003E0000202863280000F08CFD21E00020CF
:1006800085F83E0012202863280000F084FD18E061
:100690002868406830F4E06029684860286800698C
:1006A000696A0870686A401C6862688D401E6885C7
:1006B000202085F83D00002085F83E00280000F04D
:1006C0006BFD31BD38B50400E56A608D042810D19A
:1006D0002068406830F480602168486020680069C4
:1006E000616A0870606A401C6062608D401E6085AF
:1006F0007BE0608D03281AD12068406830F4806068
:1007000021684860042D07D0022D05D020680068BC
:1007100030F480602168086020680069616A0870B0
:10072000606A401C6062608D401E60855DE0608D87
:10073000022850D1012D01D0102D06D1206800686B
:1007400030F480602168086012E0042D01D0022D91
:1007500006D12068006850F480602168086007E0D6
:10076000102D05D02068006850F4007021680860E2
:1007700020680069616A0870606A401C6062608D70
:10078000401E608520680069616A0870606A401CCC
:100790006062608D401E60852068406830F4407063
:1007A00021684860202084F83D0094F83E004028ED
:1007B00008D1002084F83E0000202063200000F0D3
:1007C000E9FC12E0002084F83E00122020632000A3
:1007D00000F0E1FC09E020680069616A0870606A65
:1007E000401C6062608D401E608531BD90F83E10F7
:1007F00040290FD1016D002905D1416C11F0FE0196
:10080000026811614AE0416C51F00101C9B202680D
:10081000116143E00169B1F5804F24D190F83D109A
:10082000212905D1416C11F0FE010268116105E03A
:10083000416C51F00101C9B202681161416B00299C
:1008400003D0416B896A002906D1816B002925D02C
:10085000816B896A002921D00168496851F40061DF
:10086000026851601AE0016D00290AD1416C89B219
:10087000C90911F0060151F0F001C9B20268116115
:100880000CE0016D012909D1416C89B2C90911F04F
:10089000060151F0F101C9B2026811617047416C63
:1008A000C9B202681161416B002902D1816B002934
:1008B0000DD0416B896A002903D1816B896A0029B7
:1008C00005D00168496851F40061026851607047C1
:1008D00038B490F83E20C36A046B90F83D1022298A
:1008E00040F01781016D00290DD11100C9B24029D6
:1008F00009D1002100910168496900910168896965
:10090000009100990EE1016D002916D10169B1F540
:10091000404F12D10021009101684969009101689E
:100920008969009100990168096851F4807105682E
:100930002960016D491C0165F4E0418D00290FD14A
:10094000002100910168496900910168896900915D
:1009500000990168096851F4007105682960D5E0C3
:10096000418D012968D1DFF8C4168B4229D1016875
:10097000096831F4806105682960016849680905E2
:100980000FD50168096831F480610568296000218C
:100990000091016849690091016889690091009995
:1009A000B4E00021009101684969009101688969FA
:1009B000009100990168096851F400710568296087
:1009C000A4E0082B22D0202B20D0122C01D1012B07
:1009D0001CD1042B0AD0022B08D0102B06D00168A2
:1009E000096831F480610568296005E001680968DB
:1009F00051F480610568296000210091016849690E
:100A0000009101688969009100997FE00168096897
:100A100031F480610568296000210091016849690D
:100A2000009101688969009100990168096851F491
:100A300000710568296069E0418D022941D1042BCC
:100A400019D0022B17D0102B15D00168096851F46A
:100A500000610568296000210091016849690091E1
:100A600001688969009100990168096831F4806121
:100A7000056829600EE00168096851F48061056825
:100A80002960002100910168496900910168896924
:100A90000091009901684968090537D5DFF88C1580
:100AA0008B4207D0012B05D0082B03D0102B01D08F
:100AB000202B2BD10168496851F480510568696089
:100AC00024E00168096851F48061056829600168C3
:100AD0004968090511D5DFF854158B4207D0012B61
:100AE00005D0082B03D0102B01D0202B05D1016895
:100AF000496851F4805105686960002100910168DE
:100B00004969009101688969009100990021016596
:100B100008E0002100910168496900910168896934
:100B20000091009931BC704738B5040094F83D50ED
:100B3000608D00281ED0606A007821680861606AB4
:100B4000401C6062608D401E6085608D002811D160
:100B50002800C0B229280DD12068406830F4806098
:100B60002168486021202063282084F83D0020006F
:100B700000F013FB31BD418D002909D0416A09788D
:100B800002681161416A491C4162418D491E4185DB
:100B9000704738B5040094F83D50608D00281ED091
:100BA00020680069616A0870606A401C6062608D3C
:100BB000401E6085608D002811D12800C0B22A280F
:100BC0000DD12068406830F48060216848602220A0
:100BD0002063282084F83D00200000F0DFFA31BDBA
:100BE000418D002909D001680969426A1170416A82
:100BF000491C4162418D491E41857047F8B5050089
:100C00000E00002795F83D0010F0280028281BD181
:100C10002868406830F4806029684860700701D413
:100C200001200700300602D4E868040001E0A8694A
:100C30000400002085F83C00220092B23900C9B2BD
:100C4000280000F0ACFA06E07FF002002968486155
:100C5000002085F83C00F1BD38B5040094F83D5003
:100C60002068406830F4E06021684860002000900F
:100C70002068406900902068006850F001002168F9
:100C8000086000982068006830F48060216808607F
:100C90002068406800054ED52800C0B2222803D045
:100CA0002800C0B22A2823D1A06B00684068608564
:100CB000608D002803D0206C50F004002064206870
:100CC000406830F4006021684860A06B00F086FB4B
:100CD000012830D00FF25930A16B4863A06B00F0AF
:100CE0005FFA002827D0A06BA16B496B884722E0F0
:100CF000606B006840686085608D002803D0206CC0
:100D000050F0040020642068406830F400602168DE
:100D10004860606B00F062FB01280CD00FF21130CC
:100D2000616B4863606B00F03BFA002803D0606B96
:100D3000616B496B8847608D002822D0206840692C
:100D4000400709D520680069616A0870606A401C24
:100D50006062608D401E608520684069400609D54C
:100D600020680069616A0870606A401C6062608D7A
:100D7000401E6085608D002803D0206C50F0040078
:100D80002064206C002803D0200000F084F82FE0BD
:100D90002800C0B22A2807D100202063282084F828
:100DA0003D00200000F0FAF994F83D0028280DD10C
:100DB0009E48E06200202063202084F83D0000204F
:100DC00084F83E00200000F00CFB11E0206B22288C
:100DD00003D02800C0B222280AD10020206320209E
:100DE00084F83D00002084F83E00200000F0D6F991
:100DF00031BD70B5040094F83D50E66A082E01D06C
:100E0000202E21D12800C0B228281DD18748E062B9
:100E10002068406830F4E060216848607FF48060BA
:100E2000216848612068006830F4806021680860AB
:100E300000202063202084F83D00002084F83E003C
:100E4000200000F0CEFA25E02800C0B221281DD1F4
:100E50007648E06221202063202084F83D000020B5
:100E600084F83E002068406830F4E0602168486003
:100E70007FF48060216848612068006830F48060F9
:100E800021680860200000F088F903E07FF48060AA
:100E90002168486170BD2DE9F041040094F83D508F
:100EA00094F83E603000C0B2102803D03000C0B2C9
:100EB000402809D12800C0B2222805D12068006846
:100EC00030F40060216808602800C0B210F02800EB
:100ED000282805D100202063282084F83D000FE059
:100EE00020684068000509D42800C0B2602805D0F9
:100EF000202084F83D00002084F83E00002020637C
:100F000020684068000543D52068406830F40060E0
:100F100021684860606B90F82100012816D00FF21C
:100F20001110616B4863606B00F03AF900285BD0E8
:100F3000206800684008400021680860202084F88C
:100F40003D00606B616B496B88474DE00FF2E1003B
:100F5000A16B4863A06B00F023F9002844D02068FF
:100F60004069400606D520680069616A0870606AB9
:100F7000401C6062206800684008400021680860EA
:100F8000202084F83D00A06BA16B496B88472BE0C3
:100F900094F83D00602819D1202084F83D000020FD
:100FA000206420684069400606D520680069616AAF
:100FB0000870606A401C6062206800684008400059
:100FC00021680860200000F00DFA0DE020684069FB
:100FD000400606D520680069616A0870606A401C96
:100FE0006062200000F0D8F8276C17F00F0F05D0D2
:100FF0002068406830F4E0602168486094F83D80E3
:10100000206C400710D54046C0B228280CD10748B4
:10101000E06200202063202084F83D00002084F856
:101020003E00200000F0DDF9BDE8F0810000FFFF88
:101030007CB5040000200090656A95F83D60DFF8FB
:10104000300100681921B0FBF1F04FF47A71B0FB68
:10105000F1F12320414300910098002804D1286C2D
:1010600050F02000286406E00098401E0090286898
:1010700000688005F0D4686B002802D00020696BFE
:101080008862A86B002802D00020A96B88622868BB
:10109000006830F480602968086000206885686B0B
:1010A000002802D00020696B4863A86B002802D09A
:1010B0000020A96B48632868006840084000296840
:1010C000086095F83D0060280BD1202085F83D0090
:1010D000002085F83E0000202864280000F082F9F6
:1010E00020E03000C0B210F02800282811D1286874
:1010F000006850F00100296808602868006850F412
:1011000080602968086000202863282085F83D0059
:1011100005E0202085F83D00002085F83E002800ED
:1011200000F03AF873BD81B0010000200090104833
:1011300000681922B0FBF2F04FF47A72B0FBF2F2C1
:101140000520424300920098401E0090009800281D
:1011500005D1086C50F020000864012004E0086804
:1011600000688005EFD4002001B070470000000047
:1011700004000020C16AB1F52A0F02D10121C16229
:1011800005E0C16AB1F12A4F01D10821C16270475F
:101190007047704770477047704770477047704797
:1011A00038B50400002594F82100022804D004205A
:1011B000A063012005004AE02068006830F00E00BE
:1011C00021680860206800684008400021680860C5
:1011D0002068DFF8EC11884201D1012028E0206866
:1011E000DFF8E011884201D1102021E02068DFF80B
:1011F000D811884202D14FF4807019E02068DFF8DE
:10120000CC11884202D14FF4805011E02068DFF801
:10121000C011884202D15FF4803009E02068DFF815
:10122000B411884202D15FF4801001E05FF0807059
:10123000DFF8A4110860012084F82100002084F860
:101240002000606B002802D02000616B88472800D6
:10125000C0B232BD70B50400E06B05682068066856
:101260000421206C81400D423ED070073CD520689F
:101270000068800605D42068006830F0040021680A
:10128000086020684E49884201D1042023E020688C
:101290004C49884201D140201DE020684A498842DB
:1012A00002D14FF4806016E020684849884202D19C
:1012B0004FF480400FE020684549884202D15FF436
:1012C000802008E020684349884202D15FF4800012
:1012D00001E05FF0806040490860E06A00286DD05E
:1012E0002000E16A884769E00221206C81400D42BC
:1012F00044D0B00742D520680068800608D4206832
:10130000006830F00A0021680860012084F821009C
:1013100020682B49884201D1022023E02068294916
:10132000884201D120201DE020682749884202D14F
:101330004FF4007016E020682449884202D14FF42F
:1013400000500FE020682249884202D15FF400304B
:1013500008E020681F49884202D15FF4001001E0D4
:101360005FF000701C490860002084F82000A06A2B
:10137000002823D02000A16A88471FE00821206CA4
:1013800081400D421AD0300718D52068006830F02F
:101390000E00216808600121206C8140E06B4160F3
:1013A0000120A063012084F82100002084F820009F
:1013B000206B002802D02000216B884770BD000000
:1013C000080002401C00024030000240440002407D
:1013D000580002406C0002400400024090F82100D6
:1013E0007047704770470EE0026843680244083057
:1013F0005FEAC37C44BF4B445B1E52F804CB43F806
:1014000004CB091FF9D150F8041B0029ECD1704717
:10141000F8B50400002C01D1012039E22078C00782
:1014200040F18480DFF87806006810F00C00042892
:101430000BD0DFF86C06006810F00C0008280ED105
:10144000DFF85C060068C00309D5DFF850060068C5
:1014500080036BD56068002868D1012018E26068BD
:10146000B0F5803F08D1DFF83406006850F48030D2
:10147000DFF82816086038E06068002810D1DFF82F
:101480001C06006830F48030DFF810160860DFF8C2
:101490000C06006830F48020DFF80016086024E0B5
:1014A0006068B0F5A02F10D1DFF8F005006850F4A7
:1014B0008020DFF8E8150860DFF8E005006850F4E8
:1014C0008030DFF8D81508600FE0DFF8D00500683D
:1014D00030F48030DFF8C4150860DFF8C00500681C
:1014E00030F48020DFF8B4150860606800280ED062
:1014F00000F0F6FA0500DFF8A4050068800315D4B3
:1015000000F0EEFA401B6528F5D30320C0E100F09F
:10151000E7FA0500DFF884050068800306D500F0CF
:10152000DFFA401B6528F5D30320B1E1207880075E
:101530005CD5DFF86C05006810F00C0F0BD0DFF8FD
:101540006005006810F00C0008281AD1DFF850057B
:101550000068C00315D4DFF844050068800704D58F
:101560002069012801D0012092E1DFF830050068F0
:1015700030F0F800616950EAC100DFF8201508601A
:1015800034E0206900281ED00120DFF8281508600B
:1015900000F0A6FA0500DFF804050068800706D40D
:1015A00000F09EFA401B0328F5D3032070E1DFF81A
:1015B000EC04006830F0F800616950EAC100DFF81F
:1015C000DC14086012E00020DFF8E814086000F086
:1015D00087FA0500DFF8C4040068800706D500F02C
:1015E0007FFA401B0328F5D3032051E12078000740
:1015F0002CD5A069002816D00120DFF8BC140860A3
:1016000000F06EFA0500DFF8A8040068800706D431
:1016100000F066FA401B0328F5D3032038E10120CF
:1016200000F028FA12E00020DFF88C14086000F0C7
:1016300057FA0500DFF878040068800706D500F047
:101640004FFA401B0328F5D3032021E120784007FF
:1016500040F1A8800027DFF864040068C00010D4BF
:10166000DFF85804006850F08050DFF8501408602C
:10167000DFF84804006810F08050009000980120C6
:101680000700DFF83C040068C00516D4DFF830041A
:10169000006850F48070DFF82814086000F020FA29
:1016A0000500DFF81C040068C00506D400F018FA35
:1016B000401B6528F5D30320EAE0E068012808D143
:1016C000DFF80004006850F00100DFF8F81308604C
:1016D00037E0E068002810D1DFF8E8030068400830
:1016E0004000DFF8E0130860DFF8D803006830F04E
:1016F0000400DFF8D013086023E0E068052810D16B
:10170000DFF8C003006850F00400DFF8B813086089
:10171000DFF8B003006850F00100DFF8A81308609C
:101720000FE0DFF8A003006840084000DFF89413E2
:101730000860DFF89003006830F00400DFF88413DD
:101740000860E068002810D000F0CAF90500DFF852
:1017500074030068800719D400F0C2F9401B41F2FD
:1017600089318842F3D3032092E000F0B9F90500F3
:10177000DFF850030068800708D500F0B1F9401B7E
:1017800041F289318842F3D3032081E03800C0B2AE
:10179000012807D1DFF82403006830F08050DFF81B
:1017A0001C130860E069002871D0DFF8F4020068BB
:1017B00010F00C00082855D0E06902283FD1002025
:1017C000DFF80413086000F08BF90700DFF8CC02A3
:1017D0000068800106D500F083F9C01B0328F5D30B
:1017E000032055E0206AB0F5803F09D1DFF8B00250
:1017F000016831F40031A0680143DFF8A402016000
:10180000DFF89C02016831F47411206A0143606AB8
:101810000143DFF88C0201600120DFF8AC120860A0
:1018200000F05EF90500DFF87402006880012ED434
:1018300000F056F9401B0328F5D3032028E00020D0
:10184000DFF88412086000F04BF90500DFF84C0265
:10185000006880011BD500F043F9401B0328F5D335
:10186000032015E0E069012801D1012010E0DFF834
:1018700030020068060016F48030216A884204D1E4
:1018800016F47010616A884201D0012000E0002047
:10189000F2BD70B504000D00002C01D10120AFE0B5
:1018A000DFF82802006810F00700A84211D2DFF824
:1018B0001C020068C008C0002843DFF8101208604E
:1018C000DFF80802006810F00700A84201D00120EC
:1018D00096E0207880071FD52078400707D5DFF8ED
:1018E000C001006850F4E060DFF8B41108602078AF
:1018F000000707D5DFF8A801006850F46050DFF852
:10190000A0110860DFF89801016831F0F001A068CB
:101910000143DFF88C0101602078C00734D560688E
:10192000012806D1DFF874010068800310D401207B
:1019300066E06068022805D158480068800107D435
:1019400001205DE055480068800701D4012057E080
:101950005348016889088900606801435048016064
:1019600000F0BEF806004E48006810F00C006168F8
:10197000B0EB810F08D000F0B3F8801B41F2893141
:101980008842F0D303203BE05048006810F0070085
:1019900085420ED24D480068C008C00028434B491C
:1019A00008604A48006810F00700A84201D00120F2
:1019B00026E02078400707D53948016831F4E06116
:1019C000E0680143364801602078000708D53448B4
:1019D000006830F46050216950EAC1003049086065
:1019E00000F00FF83A492E4A1268C2F30312895CDC
:1019F000C8402D4908602D48006800F077F80020A5
:101A000070BD78B585B001A83249102200F094F875
:101A100031480088ADF8000000200021002200239A
:101A200000241F4D2D6815F00C06042E02D0082E40
:101A300002D01CE01B481BE001A8C5F38346805D73
:101A40000300E8030DD56846154E3668C6F34046D8
:101A5000805D0100134800FB03F0B0FBF1F00200D1
:101A600003E01E4800FB03F00200100000E00D48F8
:101A700006B070BD81B00C490968C9084FF47A728C
:101A8000B1FBF2F101FB00F1009100BF00994A1E89
:101A900000920029F9D101B0704700000010024007
:101AA0000410024000127A00040000200000002010
:101AB0002410024000004242800442421C100240B6
:101AC00000700040201002406000424200200240AE
:101AD000E42C0008D42C0008BE1B000800093D00BF
:101AE00001480068704700BF3001002010B50400B5
:101AF0004FF47A700D490978B0FBF1F00C49096890
:101B0000B1FBF0F000F0EFF8002801D001200CE06C
:101B1000102C09D2002221005FF0FF3000F0C7F83E
:101B200004480460002000E0012010BD08000020EF
:101B30000400002000000020103A07D330B4B1E8C0
:101B40003810103AA0E83810F9D230BC530724BF3F
:101B5000B1E80810A0E8081044BF51F8043B40F871
:101B6000043BD20724BF31F8022B20F8022B44BFDC
:101B70000B7803707047121F17D35B0009D151F81F
:101B8000043B20F8023B1B0C121F20F8023BF6D24C
:101B90000BE051F8043B00F8013B1B0A20F8023B24
:101BA0001B0C121F00F8013BF3D238BF121D521E4E
:101BB00024BF11F8013B00F8013BF8D8704701023F
:101BC00010F007034B490A684FF6FF010A4052EA3A
:101BD000032249490A4347490A607047454800685B
:101BE000C0F302207047010049B2002909D4012244
:101BF00010F01F018A40414903005BB25B0941F8C4
:101C00002320704710B4020052B2002A05D40A0102
:101C10003B4B040064B21A5508E00A01394B04003A
:101C200064B214F00F04234403F8042C10BC704772
:101C300070B4030013F00704D4F10700052801D3A2
:101C4000042001E0D4F10700251D072D01D2002555
:101C500000E0E51E012616FA00F0401E0140A940F2
:101C6000012010FA05F56D1E2A401143080070BCD2
:101C7000704710B50400601EB0F1807F01D30120D1
:101C80000EE0601E204908600F215FF0FF30FFF773
:101C9000B9FF00201D49086007201D490860002089
:101CA00010BD10B504002000FFF78AFF10BD2DE91C
:101CB000F04104000D0016000027FFF78FFF80465B
:101CC000320029004046FFF7B3FF0100200040B278
:101CD000FFF798FFBDE8F08110B50400200040B286
:101CE000FFF781FF10BD10B504002000FFF7C1FF12
:101CF00010BD00000CED00E00000FA0500E100E07E
:101D000000E400E018ED00E014E000E018E000E07E
:101D100010E000E010B50400002C01D101202FE0FC
:101D200094F83D00002805D1002084F83C002000F4
:101D300000F078FB022084F83D00211D206800F0AF
:101D400018FA012084F84600012084F83E000120A2
:101D500084F83F00012084F84000012084F841000D
:101D6000012084F84200012084F84300012084F817
:101D70004400012084F84500012084F83D00002043
:101D800010BD2DE9F04105000C00002C02D195F8A2
:101D90003E700BE0042C02D195F83F7006E0082C51
:101DA00002D195F8407001E095F84170002C02D105
:101DB00095F842800BE0042C02D195F8438006E0B0
:101DC000082C02D195F8448001E095F84580380050
:101DD000C0B2012803D14046C0B2012801D0012081
:101DE00082E0002C04D1022085F83E00C0B211E050
:101DF000042C04D1022085F83F00C0B20AE0082C70
:101E000004D1022085F84000C0B203E0022085F82A
:101E10004100C0B2002C04D1022085F84200C0B2BB
:101E200011E0042C04D1022085F84300C0B20AE07E
:101E3000082C04D1022085F84400C0B203E002203F
:101E400085F84500C0B22000002806D004280BD039
:101E5000082810D00C2815D01BE02868C06850F066
:101E600002002968C86014E02868C06850F00400C7
:101E70002968C8600DE02868C06850F0080029682B
:101E8000C86006E02868C06850F010002968C86083
:101E9000FFE701222100286800F022FA2868134990
:101EA00088420CD02868B0F1804F08D028681049CB
:101EB000884204D02868DFF83C1088420DD1286899
:101EC000806810F007000600062E0CD02868006815
:101ED00050F001002968086005E02868006850F0AB
:101EE0000100296808600020BDE8F081002C014055
:101EF000000400400008004010B50400206800699C
:101F000080071AD52068C068800716D57FF00200C8
:101F100021680861012020772068806910F0030F94
:101F200003D0200000F0DCFA05E0200000F046FBC2
:101F3000200000F044FB0020207720680069400763
:101F40001AD52068C068400716D57FF004002168C4
:101F50000861022020772068806910F4407F03D058
:101F6000200000F0BDFA05E0200000F027FB200073
:101F700000F025FB002020772068006900071AD5B3
:101F80002068C068000716D57FF008002168086146
:101F9000042020772068C06910F0030F03D02000D0
:101FA00000F09EFA05E0200000F008FB200000F0A1
:101FB00006FB0020207720680069C0061AD520683B
:101FC000C068C00616D57FF010002168086108209F
:101FD00020772068C06910F4407F03D0200000F013
:101FE0007FFA05E0200000F0E9FA200000F0E7FAAF
:101FF0000020207720680069C0070AD52068C068E3
:10200000C00706D57FF0010021680861200000F0BC
:10201000D7FA2068006900060AD52068C068000663
:1020200006D57FF0800021680861200000F0C9FA21
:102030002068006940060AD52068C068400606D5B9
:102040007FF0400021680861200000F0BBFA2068A2
:10205000006980060AD52068C068800606D57FF032
:10206000200021680861200000F0ADFA10BD70B5B5
:1020700005000E00140095F83C00012801D1022053
:1020800059E0012085F83C00002C12D1F3687268F9
:102090003168286800F09FF82868806930F00C00EB
:1020A0002968886128688169B0680143286881616E
:1020B0003DE0042C13D1F36872683168286800F0A1
:1020C000BFF82868806930F4406029688861286812
:1020D0008069B16850EA01202968886127E0082CEE
:1020E00012D1F36872683168286800F0C4F8286873
:1020F000C06930F00C002968C8612868C169B068FF
:1021000001432868C16112E0F36872683168286889
:1021100000F0CBF82868C06930F440602968C861D5
:102120002868C069B16850EA01202968C8610020A8
:1021300085F83C00002070BD020000200B00002B41
:1021400006D0042B08D0082B0AD00C2B0CD00FE0A3
:1021500013685B6B18000BE013689B6B180007E0BB
:102160001368DB6B180003E013681B6C1800FFE7B3
:10217000704703682F4A904208D0B0F1804F05D0D5
:102180002D4A904202D02D4A904203D133F0700381
:102190004A681343274A904208D0B0F1804F05D0D7
:1021A000254A904202D0254A904203D133F440732D
:1021B000CA68134333F080034A69134303608A6893
:1021C000C2620A6882621B4A904201D10A690263B4
:1021D00001224261704770B4046A640864000462BA
:1021E0008569066A134CA04208D0B0F1804F05D033
:1021F000114CA04202D0114CA04201D1012400E0B8
:102200000024E4B2002C03D0AD08AD00154301E07A
:1022100055F0010535F0F0051C0114F0F0042543DC
:1022200036F00A0611F00A0426438561066270BC86
:1022300070470000002C01400004004000080040EE
:1022400070B4046A34F0100404628469056A34F4DA
:10225000407454EA022434F470441E0316F47046A9
:10226000344335F0A0050E0116F0A0063543846115
:10227000056270BC704770B4046A34F48074046200
:10228000C469056AA408A400144334F0F0041E01D4
:1022900016F0F006344335F400750E0216F400769D
:1022A0003543C461056270BC704770B4046A34F48D
:1022B00080540462C469056A34F4407454EA022408
:1022C00034F470441E0316F47046344335F400555C
:1022D0000E0316F400563543C461056270BC7047A6
:1022E00030B4012411F01F0314FA03F3046A9C4371
:1022F0000462046A11F01F0512FA05F52C4304620A
:1023000030BC704700B58BB00822002108A800F04F
:102310005BF91022002104A800F056F99A489B4965
:1023200008604820994948600020984988604FF625
:10233000FF709649C86000209449086100209349C5
:1023400048610020914988619048FFF7E3FC00282C
:1023500000D0FEE7002008900020099008A98B48D3
:1023600000F03CF9002800D0FEE700200490012096
:1023700005900020069000200790002204A98348C1
:10238000FFF775FE002800D0FEE70220049002202F
:102390000590042204A97D48FFF769FE002800D0BB
:1023A000FEE710220021684600F00EF97848006828
:1023B00050F00400764908607548006810F0040089
:1023C0000A900A984FF400700090012001900020BC
:1023D00002900220039069466E4800F03DF9012208
:1023E0004FF400716B4800F04AFA4FF4806000909F
:1023F00069480190002002906946664800F02CF977
:10240000012201212820FFF752FC2820FFF764FC5D
:1024100000215E48FFF7B5FC04215C48FFF7B1FCE2
:102420000BB000BD18B585B004001022002101A832
:1024300000F0CAF82068544988422AD154480068FC
:1024400050F40060524908605148006810F4006080
:10245000009000984E48006850F004004C49086015
:102460004B48006810F00400009000984FF4807012
:102470000190002002900020039001A9454800F03F
:10248000EBF8002200211B20FFF711FC1B20FFF7B7
:1024900023FC06B010BD10B50400200080B2B0F5DA
:1024A000806F1CD13D4801783D4800780143C9B296
:1024B000002914D101203949087000224FF400711D
:1024C000344800F0DCF90020B0F5FA6F01D2401C6E
:1024D000FAE701224FF400712E4800F0D0F910BD48
:1024E00010B504002F480068401C2E490860207F6A
:1024F00001280DD129480078012843D1002120006E
:10250000FFF71AFE2849086001202549087039E0C4
:10251000207F022836D122480078012832D11F4876
:10252000007801282ED104212000FFF705FE1F4965
:1025300008601D4800681D490968884207D21B4889
:10254000016819480068091A1948016008E017482D
:10255000016815480068091A11F5803114480160B6
:1025600013480068400800F0B7F9124900F0C2F9BA
:1025700000F02CFA1049088000200849087000205B
:102580000749087010BD0000002C014060000020C9
:1025900018100240000801400000211046010020F0
:1025A0004701002034010020380100203C010020B8
:1025B00040010020287E0C3D4401002070477047F8
:1025C000704770477047704710B5044610460A467A
:1025D0000146204600F00EFA204610BD30B402003D
:1025E00092F83C00012801D102202CE0012082F861
:1025F0003C00022082F83D0010684368106884683F
:1026000033F07003086803431068436010680F4D8F
:10261000A8420BD01068B0F1804F07D010680C4D65
:10262000A84203D010680B4DA84205D134F08004B5
:102630004868044310688460012082F83D0000204F
:1026400082F83C00002030BC70470000002C0140A4
:1026500000040040000800402DE9F84302005FF04C
:10266000000E5FF00008086830FA0EF0002800F055
:102670000481012010FA0EF00300086818400400DD
:102680009C4240F0F7804868002831D0012820D0D3
:10269000022825D003283CD011281DD0122823D091
:1026A000DFF8F4C1604523D0DFF8F0C160451FD0EA
:1026B000DFF8ECC160451BD0DFF8E8C1604517D0FA
:1026C000DFF8E4C1604513D0DFF8E0C160450FD00A
:1026D00022E0C86880461FE0C868001D80461BE0F5
:1026E000C8680830804617E0C8680C30804613E0A0
:1026F0008868002802D10420804609E08868012803
:1027000003D108208046136102E00820804653610F
:1027100002E000208046FFE7B4F5807F01D216007A
:1027200000E0161DB4F5807F02D25FEA8E0702E05A
:10273000BEF10807BF00D6F800C00F20B8403CEA41
:10274000000C18FA07F050EA0C0CC6F800C04868F4
:10275000C00040F18F805648006850F00100DFF85B
:1027600050C1CCF800005248006810F00100009001
:1027700000985048F4465FEA9C0C50F82CC05FF07B
:102780000F091EF00300C0B2800019FA00F93CEAFC
:10279000090C4948824202D15FF0000913E0474822
:1027A000824202D15FF001090DE04548824202D128
:1027B0005FF0020907E04348824202D15FF003095B
:1027C00001E05FF0040965461EF00300C0B280001E
:1027D00019FA00F959EA05053648F4465FEA9C0CF7
:1027E00040F82C504868C00307D53748006820439C
:1027F000DFF8D4C0CCF8000006E033480068A043FE
:10280000DFF8C4C0CCF800004868800307D52F4823
:1028100000682043DFF8B4C0CCF8000006E02B4885
:102820000068A043DFF8A4C0CCF800004868C002EC
:1028300007D5274800682043DFF894C0CCF8000093
:1028400006E023480068A043DFF884C0CCF800000D
:102850004868800207D51F4800682043DFF874C02D
:10286000CCF8000006E01B480068A043DFF864C015
:10287000CCF800001EF1010EF5E6BDE8F18313006F
:10288000DBB2002B03D00B009BB2036103E00B0013
:102890009BB21B040361704700001110000012106E
:1028A0000000211000002210000031100000321042
:1028B000181002400800014000080140000C0140CF
:1028C00000100140001401400004014004040140D4
:1028D000080401400C04014050B1B0FA80F1884076
:1028E000C1F19D01C905020672F1004241EB1020C1
:1028F00070470000FF2212EAD05C1DBF12EAD153DC
:10290000944593422BE09C44D30780EA010243EABA
:10291000002043EA01211A40A1FB0030C04238BF29
:1029200000187CF17F010BDBFE294ADA5B0842EAE2
:10293000C15153EA006373F1004C51EB1020704712
:10294000D1F1080CDCF120012FDB5B0810FA01F15A
:102950000B4320FA0CF073F100415041704794454D
:102960001CBF02EAD153934280EA010202F0004206
:102970001DD0400019D0490017D05BB9634514D071
:102980000902B1FA81F39940BCEB030CC00140F09D
:102990000040C1E70002B0FA80FC10FA0CF0B3EB83
:1029A0000C0CC90141F00041B6E71000704740002F
:1029B0000AD0490008D010F1807F94BF11F1807FC8
:1029C00002E042F0FF407047D0437047C0F3C75168
:1029D000D1F19E0108DD020242F00042CA4002EB42
:1029E000E07282EAE07070477FEAE07080F00040B9
:1029F0007047000062F30F2262F31F42401810F08C
:102A0000030308D0C91A1FD3DB0748BF00F8012D04
:102A100028BF20F8022D130030B414461546103993
:102A200028BF20E93C00FAD8490728BF20E90C005C
:102A300048BF40F8042D890028BF20F8022D48BF68
:102A400000F8012D30BC7047C91818BF00F8012DDF
:102A5000CB0728BF00F8012D704780B500F03CF887
:102A600000F003F8FFF74EFCFEE700B58FB0282218
:102A7000002105A8FFF7A8FD142200216846FFF7F2
:102A8000A3FD012005905FF48030069000200790A0
:102A90000120099002200C905FF480300D905FF4CB
:102AA000E0100E9005A8FEF7B3FC002800D0FEE76A
:102AB0000F20009002200190002002904FF48060CF
:102AC00003900020049002216846FEF7E2FE0028F1
:102AD00000D0FEE70FB000BD80B50848006850F098
:102AE0001000064908600320FFF7DBF80020FEF71E
:102AF000FDFF00F005F8002002BD000000200240AC
:102B000081B01348006850F0010011490860104876
:102B1000006810F00100009000980E48006850F026
:102B200080500C4908600B48006810F080500090FD
:102B300000980748006850F02000054908600448E4
:102B4000006810F020000090009801B0704700BFAE
:102B5000181002401C100240FEE7FEE7FEE7FEE709
:102B6000FEE770477047704780B500F033F801BD4D
:102B700080B51348FEF76EFB01BD80B51148FEF726
:102B800069FB01BD80B51048FDF7B0FA01BD80B505
:102B90000D48FDF788FB01BD80B50C480068400575
:102BA00007D54FF48060094908604FF48060FFF753
:102BB00072FC01BD80B50648FFF79EF901BD00001B
:102BC000EC000020A80000200C00002014040140AC
:102BD000600000200348016803480078411801485C
:102BE00001607047300100200800002030B400254B
:102BF00012E050F8042BD30744BF4A44521E091F69
:102C0000042942F8045BFAD213468C0744BF1580AE
:102C10009B1CC90748BF1D7050F8041B0029E8D150
:102C200030BC704710B5074979441831064C7C44D4
:102C3000163404E00A68081D114488470146A14281
:102C4000F8D110BD0800000028000000A1FFFFFF20
:102C50003C0100000C000020000000008BE7FFFF9B
:102C60000C000000A0000000000000200000000098
:102C700000F00DF8002801D0FFF7D4FFAFF300807B
:102C80000020AFF30080FFF7E8FE00F002F801201B
:102C9000704700F001B800000746384600F002F81F
:102CA000FBE7000080B5AFF30080024A1100182056
:102CB000ABBEFBE7260002000548014603B46846A8
:102CC00080F30988AFF30080AFF30080FFF7D0FFF7
:102CD000A5EDF5FE02030405060708090A0B0C0D15
:102CE0000E0F10100000000000000000010203049D
:102CF000060708090148804701480047A52D00083C
:102D0000B92C0008100000000024F40001000000AD
:102D1000FFF7FEBFFFF7FEBFFFF7FEBFFFF7FEBFE7
:102D2000FFF7FEBFFFF7FEBFFFF7FEBFFFF7FEBFD7
:102D3000FFF7FEBFFFF7FEBFFFF7FEBFFFF7FEBFC7
:102D4000FFF7FEBFFFF7FEBFFFF7FEBFFFF7FEBFB7
:102D5000FFF7FEBFFFF7FEBFFFF7FEBFFFF7FEBFA7
:102D6000FFF7FEBFFFF7FEBFFFF7FEBFFFF7FEBF97
:102D7000FFF7FEBFFFF7FEBFFFF7FEBFFFF7FEBF87
:102D8000FFF7FEBFFFF7FEBFFFF7FEBFFFF7FEBF77
:102D9000FFF7FEBFFFF7FEBFFFF7FEBFFFF7FEBF67
:062DA000FFF7FEBF7047C3
:0400000508002CB90A
:00000001FF
