:020000040800F2
:1000000048050020F12B0008AD2A0008AF2A00089F
:10001000B12A0008B32A0008B52A00080000000031
:10002000000000000000000000000000B72A0008E7
:10003000B92A000800000000BB2A0008BD2A0008F9
:10004000192C00081D2C0008212C0008252C000864
:10005000292C00082D2C0008312C0008352C000814
:10006000392C00083D2C0008412C0008452C0008C4
:10007000492C00084D2C0008512C0008552C000874
:10008000C52A0008CF2A0008592C00085D2C00085A
:10009000612C0008652C0008692C00086D2C0008F4
:1000A000712C0008752C0008792C0008072B00081B
:1000B0007D2C0008812C0008852C0008D92A000816
:1000C000E32A0008892C00088D2C0008912C0008D8
:1000D000952C0008992C00089D2C0008A12C0008E4
:1000E000ED2A0008A52C0008A92C00082DE9F047EE
:1000F0000400002520684668E76A94F83E8094F87A
:100100003D904046C0B2102803D04046C0B24028BF
:1001100072D12068806905002068D0F814A05FEAD9
:10012000CA700CD4B7F52A0F02D0B7F12A4F01D10B
:10013000012000E00020C0B2002840F0B4801AF096
:100140000100C0B2002808D0B00506D5200001F09B
:1001500013F8200000F04CFBA5E05FEA0A7005D51B
:10016000B00503D5200000F09CFB9CE05FEA8A709C
:1001700005D5B00503D5200000F0ACFB93E068077F
:1001800021D520684068000500F18D805FEA0A6093
:1001900008D5700506D55FEA4A7003D4200000F048
:1001A00000F980E05FEA4A707DD5B0057BD5404616
:1001B000C0B2102803D1200000F067F973E02000DE
:1001C00000F0AAF96FE02068406800056BD45FEA90
:1001D0004A6008D5700506D55FEA4A7003D420004E
:1001E00000F000FA5FE05FEA4A705CD5B0055AD5CE
:1001F000200000F069FA56E0206C002803D0206847
:10020000D0F814A005E02068806905002068D0F8C7
:1002100014A05FEA8A700CD5B0050AD5206C0028BE
:1002200002D02068806905002900200000F0E8FC69
:1002300039E05FEACA6005D5B00503D5200000F0BB
:100240000DFD30E04846C0B2212803D04846C0B278
:10025000292814D15FEA0A6008D5700506D55FEA3F
:100260004A7003D4200000F061FC1CE05FEA4A7091
:1002700019D5B00517D5200000F07FFC13E05FEA28
:100280004A6008D5700506D55FEA4A7003D420009D
:1002900000F081FC07E05FEA4A7004D5B00502D5A2
:1002A000200000F09FFCBDE8F0872DE9F84F060024
:1002B0003068D0F814903068D0F804A0002596F883
:1002C0003EB05FEAC9500ED55FEACA500BD555F073
:1002D00001057FF48070316848613068006850F42F
:1002E0000040316808605FEA895008D55FEACA506B
:1002F00005D555F002057FF40070316848615FEA6A
:10030000495038D55FEACA5035D58DF800B0708DA8
:10031000040096F83D000700306B80469DF8000011
:10032000202814D1002C12D13800C0B221280AD0C4
:100330003800C0B2292806D03800C0B2282806D11B
:10034000B8F1210F03D1300000F055FD13E07FF428
:1003500080603168486155F004055846C0B21028E5
:1003600003D05846C0B2402805D13068006850F428
:100370000070316808605FEA095008D55FEACA502A
:1003800005D555F008057FF4006031684861002DFF
:1003900005D0306C28433064300000F07EFDBDE8AD
:1003A000F18FF8B5040094F83D5094F83E60E76A88
:1003B000208D002840D12800C0B221283CD1082F30
:1003C00017D0202F15D0DFF8680C874211D0206895
:1003D000406830F4E060216848601120206300200C
:1003E00084F83E00202084F83D00200000F0D2FE7A
:1003F0004AE02068406830F4E06021684860206886
:10040000006850F4007021680860002020632020FC
:1004100084F83D0094F83E00402806D1002084F87E
:100420003E00200000F0B7FE2EE0002084F83E00E1
:10043000200000F0AFFE27E02800C0B2212807D03E
:100440003000C0B240281FD12800C0B222281BD1E2
:10045000608D002806D12068406830F480602168F3
:10046000486011E094F83E00402803D1200000F0DD
:1004700053F809E0606A007821680861606A401CEE
:100480006062608D401E6085F1BD38B50400E56A8C
:1004900094F83D0021283ED1608D00280AD0606A82
:1004A000007821680861606A401C6062608D401EAF
:1004B000608530E0082D17D0202D15D0DFF8700BA7
:1004C000854211D02068406830F4E06021684860BF
:1004D00011202063002084F83E00202084F83D0095
:1004E000200000F057FE16E02068406830F4E0601D
:1004F000216848602068006850F400702168086036
:1005000000202063202084F83D00002084F83E0075
:10051000200000F03FFE31BD38B5040094F83D5096
:10052000206D002814D1E06C012807D1A06CC0B266
:1005300021680861206D801C206552E0A06C80B2AB
:10054000000AC0B221680861206D401C206548E0A7
:10055000206D012807D1A06CC0B221680861206D10
:10056000401C20653DE0206D02283AD12800C0B231
:10057000222806D12068006850F480702168086045
:100580002FE0608D00280ED02800C0B221280AD1AB
:10059000606A007821680861606A401C6062608D52
:1005A000401E60851DE0608D00281AD12800C0B271
:1005B000212816D12068406830F4E0602168486046
:1005C0002068006850F400702168086000202063F3
:1005D000202084F83D00002084F83E00200000F038
:1005E000DAFD31BD38B5050095F83D0022286AD105
:1005F0006C8D042C13D328680069696A0870686AD6
:10060000401C6862688D401E6885688D03285AD139
:100610002868406830F480602968486053E0E86AE0
:10062000022850D0012C01D0002C4CD1280000F021
:100630007CFD00282ED12868006830F4806029688D
:1006400008602868406830F4E060296848602868DD
:100650000069696A0870686A401C6862688D401E9B
:100660006885202085F83D0095F83E00402808D197
:10067000002085F83E0000202863280000F08CFD53
:1006800021E0002085F83E0012202863280000F0B9
:1006900084FD18E02868406830F4E060296848600C
:1006A00028680069696A0870686A401C6862688D19
:1006B000401E6885202085F83D00002085F83E001A
:1006C000280000F06BFD31BD38B50400E56A608D8F
:1006D000042810D12068406830F4806021684860A8
:1006E00020680069616A0870606A401C6062608D01
:1006F000401E60857BE0608D03281AD12068406829
:1007000030F4806021684860042D07D0022D05D0A8
:100710002068006830F48060216808602068006903
:10072000616A0870606A401C6062608D401E60856E
:100730005DE0608D022850D1012D01D0102D06D131
:100740002068006830F480602168086012E0042DA1
:1007500001D0022D06D12068006850F48060216825
:10076000086007E0102D05D02068006850F4007084
:100770002168086020680069616A0870606A401C2E
:100780006062608D401E608520680069616A087043
:10079000606A401C6062608D401E60852068406811
:1007A00030F4407021684860202084F83D0094F8BF
:1007B0003E00402808D1002084F83E00002020633D
:1007C000200000F0E9FC12E0002084F83E00122036
:1007D0002063200000F0E1FC09E020680069616A04
:1007E0000870606A401C6062608D401E608531BD8B
:1007F00090F83E1040290FD1016D002905D1416CC0
:1008000011F0FE01026811614AE0416C51F00101F2
:10081000C9B20268116143E00169B1F5804F24D18A
:1008200090F83D10212905D1416C11F0FE010268BC
:10083000116105E0416C51F00101C9B2026811611A
:10084000416B002903D0416B896A002906D1816B75
:10085000002925D0816B896A002921D00168496867
:1008600051F40061026851601AE0016D00290AD15B
:10087000416C11F4407189B2C90951F0F001C9B25B
:10088000026811610CE0016D012909D1416C11F47C
:10089000407189B2C90951F0F101C9B20268116110
:1008A0007047416CC9B202681161416B002902D1E5
:1008B000816B00290DD0416B896A002903D1816BBE
:1008C000896A002905D00168496851F4006102680D
:1008D0005160704738B490F83E20C36A046B90F8BA
:1008E0003D10222940F01781016D00290DD1110022
:1008F000C9B2402909D100210091016849690091DC
:1009000001688969009100990EE1016D002916D1F5
:100910000169B1F5404F12D1002100910168496988
:10092000009101688969009100990168096851F492
:10093000807105682960016D491C0165F4E0418DF5
:1009400000290FD1002100910168496900910168D7
:100950008969009100990168096851F4007105687E
:100960002960D5E0418D012968D1DFF8C4168B429A
:1009700029D10168096831F480610568296001683E
:10098000496809050FD50168096831F48061056877
:100990002960002100910168496900910168896915
:1009A00000910099B4E0002100910168496900912B
:1009B00001688969009100990168096851F4007122
:1009C00005682960A4E0082B22D0202B20D0122C0F
:1009D00001D1012B1CD1042B0AD0022B08D0102BE3
:1009E00006D00168096831F480610568296005E076
:1009F0000168096851F4806105682960002100914F
:100A000001684969009101688969009100997FE056
:100A10000168096831F4806105682960002100914E
:100A2000016849690091016889690091009901682C
:100A3000096851F400710568296069E0418D022957
:100A400041D1042B19D0022B17D0102B15D00168DF
:100A5000096851F40061056829600021009101686E
:100A600049690091016889690091009901680968E4
:100A700031F48061056829600EE00168096851F46D
:100A80008061056829600021009101684969009131
:100A9000016889690091009901684968090537D59D
:100AA000DFF88C158B4207D0012B05D0082B03D023
:100AB000102B01D0202B2BD10168496851F48051B3
:100AC0000568696024E00168096851F4806105687F
:100AD000296001684968090511D5DFF854158B4272
:100AE00007D0012B05D0082B03D0102B01D0202BD1
:100AF00005D10168496851F4805105686960002199
:100B00000091016849690091016889690091009923
:100B10000021016508E00021009101684969009108
:100B2000016889690091009931BC704738B50400AB
:100B300094F83D50608D00281ED0606A00782168CE
:100B40000861606A401C6062608D401E6085608D37
:100B5000002811D12800C0B229280DD12068406892
:100B600030F480602168486021202063282084F8C8
:100B70003D00200000F013FB31BD418D002909D05C
:100B8000416A097802681161416A491C4162418DDC
:100B9000491E4185704738B5040094F83D50608D7A
:100BA00000281ED020680069616A0870606A401CD5
:100BB0006062608D401E6085608D002811D1280024
:100BC000C0B22A280DD12068406830F480602168C6
:100BD000486022202063282084F83D00200000F097
:100BE000DFFA31BD418D002909D001680969426AE7
:100BF0001170416A491C4162418D491E418570470F
:100C0000F8B505000E00002795F83D0010F028000B
:100C100028281BD12868406830F480602968486023
:100C2000700701D401200700300602D4E8680400F0
:100C300001E0A8690400002085F83C00220092B27F
:100C40003900C9B2280000F0ACFA06E07FF00200DB
:100C500029684861002085F83C00F1BD38B50400E2
:100C600094F83D502068406830F4E06021684860A6
:100C7000002000902068406900902068006850F0D3
:100C800001002168086000982068006830F48060E6
:100C9000216808602068406800054ED52800C0B271
:100CA000222803D02800C0B22A2823D1A06B0068D4
:100CB00040686085608D002803D0206C50F00400EF
:100CC00020642068406830F4006021684860A06BB0
:100CD00000F086FB012830D00FF25930A16B486339
:100CE000A06B00F05FFA002827D0A06BA16B496BC6
:100CF000884722E0606B006840686085608D00284E
:100D000003D0206C50F0040020642068406830F468
:100D1000006021684860606B00F062FB01280CD025
:100D20000FF21130616B4863606B00F03BFA0028F2
:100D300003D0606B616B496B8847608D002822D0BF
:100D400020684069400709D520680069616A087019
:100D5000606A401C6062608D401E6085206840694A
:100D6000400609D520680069616A0870606A401C05
:100D70006062608D401E6085608D002803D0206C0D
:100D800050F004002064206C002803D0200000F004
:100D900084F82FE02800C0B22A2807D10020206361
:100DA000282084F83D00200000F0FAF994F83D0076
:100DB00028280DD19E48E06200202063202084F87E
:100DC0003D00002084F83E00200000F00CFB11E004
:100DD000206B222803D02800C0B222280AD100208C
:100DE0002063202084F83D00002084F83E0020008D
:100DF00000F0D6F931BD70B5040094F83D50E66AB4
:100E0000082E01D0202E21D12800C0B228281DD1C3
:100E10008748E0622068406830F4E06021684860FC
:100E20007FF48060216848612068006830F4806049
:100E30002168086000202063202084F83D00002005
:100E400084F83E00200000F0CEFA25E02800C0B271
:100E500021281DD17648E06221202063202084F8DB
:100E60003D00002084F83E002068406830F4E060D7
:100E7000216848607FF480602168486120680068CC
:100E800030F4806021680860200000F088F903E0F9
:100E90007FF480602168486170BD2DE9F041040055
:100EA00094F83D5094F83E603000C0B2102803D052
:100EB0003000C0B2402809D12800C0B2222805D194
:100EC0002068006830F40060216808602800C0B223
:100ED00010F02800282805D100202063282084F85D
:100EE0003D000FE020684068000509D42800C0B22A
:100EF000602805D0202084F83D00002084F83E00C2
:100F00000020206320684068000543D520684068C1
:100F100030F4006021684860606B90F8210001287F
:100F200016D00FF21110616B4863606B00F03AF954
:100F300000285BD0206800684008400021680860F5
:100F4000202084F83D00606B616B496B88474DE061
:100F50000FF2E100A16B4863A06B00F023F90028B9
:100F600044D020684069400606D520680069616A5F
:100F70000870606A401C6062206800684008400099
:100F800021680860202084F83D00A06BA16B496BAC
:100F900088472BE094F83D00602819D1202084F880
:100FA0003D000020206420684069400606D5206886
:100FB0000069616A0870606A401C606220680068AD
:100FC0004008400021680860200000F00DFA0DE0A4
:100FD00020684069400606D520680069616A08708B
:100FE000606A401C6062200000F0D8F8276C17F09F
:100FF0000F0F05D02068406830F4E0602168486039
:1010000094F83D80206C400710D54046C0B2282897
:101010000CD10748E06200202063202084F83D00C6
:10102000002084F83E00200000F0DDF9BDE8F081EA
:101030000000FFFF7CB5040000200090656A95F871
:101040003D60DFF8300100681921B0FBF1F04FF48A
:101050007A71B0FBF1F12320414300910098002800
:1010600004D1286C50F02000286406E00098401E4F
:101070000090286800688005F0D4686B002802D0D2
:101080000020696B8862A86B002802D00020A96B41
:1010900088622868006830F4806029680860002051
:1010A0006885686B002802D00020696B4863A86BD4
:1010B000002802D00020A96B486328680068400817
:1010C00040002968086095F83D0060280BD1202079
:1010D00085F83D00002085F83E00002028642800A7
:1010E00000F082F920E03000C0B210F0280028287B
:1010F00011D12868006850F001002968086028684C
:10110000006850F480602968086000202863282067
:1011100085F83D0005E0202085F83D00002085F899
:101120003E00280000F03AF873BD81B001000020B5
:101130000090104800681922B0FBF2F04FF47A7268
:10114000B0FBF2F20520424300920098401E00904E
:101150000098002805D1086C50F020000864012098
:1011600004E0086800688005EFD4002001B07047F3
:101170000000000004000020C16AB1F52A0F02D16E
:101180000121C16205E0C16AB1F12A4F01D10821F4
:10119000C16270477047704770477047704770472B
:1011A0007047704738B50400002594F821000228E4
:1011B00004D00420A063012005004AE020680068F4
:1011C00030F00E0021680860206800684008400088
:1011D000216808602068DFF8EC11884201D1012005
:1011E00028E02068DFF8E011884201D1102021E0DA
:1011F0002068DFF8D811884202D14FF4807019E0DE
:101200002068DFF8CC11884202D14FF4805011E001
:101210002068DFF8C011884202D15FF4803009E015
:101220002068DFF8B411884202D15FF4801001E039
:101230005FF08070DFF8A4110860012084F82100BD
:10124000002084F82000606B002802D02000616B31
:1012500088472800C0B232BD70B50400E06B056855
:10126000206806680421206C81400D423ED0700742
:101270003CD520680068800605D42068006830F0FE
:1012800004002168086020684E49884201D104208A
:1012900023E020684C49884201D140201DE02068AD
:1012A0004A49884202D14FF4806016E020684849DC
:1012B000884202D14FF480400FE0206845498842BF
:1012C00002D15FF4802008E020684349884202D1BF
:1012D0005FF4800001E05FF0806040490860E06AF0
:1012E00000286DD02000E16A884769E00221206C67
:1012F00081400D4244D0B00742D520680068800686
:1013000008D42068006830F00A00216808600120D5
:1013100084F8210020682B49884201D1022023E073
:1013200020682949884201D120201DE020682749F2
:10133000884202D14FF4007016E0206824498842A8
:1013400002D14FF400500FE020682249884202D1B8
:101350005FF4003008E020681F49884202D15FF442
:10136000001001E05FF000701C490860002084F864
:101370002000A06A002823D02000A16A88471FE02F
:101380000821206C81400D421AD0300718D5206802
:10139000006830F00E00216808600121206C814057
:1013A000E06B41600120A063012084F8210000204F
:1013B00084F82000206B002802D02000216B884791
:1013C00070BD0000080002401C00024030000240D6
:1013D00044000240580002406C00024004000240F9
:1013E00090F8210070477047704730B4002513E033
:1013F00050F8042BD30744BFA9F101039A18091F21
:10140000042942F8045BFAD213468C0744BF1580C6
:101410009B1CC90748BF1D7050F8041B0029E7D169
:1014200030BC70472DE9FC470400002C01D101209D
:10143000F6E12078C0076BD5DFF8D005016811F020
:101440000C01042907D0016811F00C0108290CD106
:101450000068C00309D5DFF8B0050068800357D5E0
:101460006068002854D10120DAE16068B0F5803F5F
:1014700006D1DFF89405016851F48031016026E05F
:10148000606800280AD1DFF88005016831F48031F6
:101490000160016831F48021016018E06068B0F5F6
:1014A000A02F0AD1DFF86005016851F480210160A6
:1014B000016851F48031016009E0DFF84C050168F2
:1014C00031F480310160016831F48021016060688D
:1014D00000280ED000F0BAFA0500DFF82C050068ED
:1014E000800315D400F0B2FA401B6528F5D3032021
:1014F00096E100F0ABFA0500DFF80C050068800308
:1015000006D500F0A3FA401B6528F5D3032087E138
:101510002078800750D5DFF8F404016811F00C0F33
:1015200007D0016811F00C01082914D10068C0032C
:1015300011D4DFF8D4040168890704D52169012991
:1015400001D001206CE1016831F0F801626951EAD3
:10155000C201016030E0206900281AD00120DFF8C4
:10156000C014086000F072FA0500DFF89C040168FE
:10157000890706D400F06AFA401B0328F5D303203C
:101580004EE1016831F0F801626951EAC20101607F
:1015900012E00020DFF88814086000F057FA050018
:1015A000DFF864040068800706D500F04FFA401B9E
:1015B0000328F5D3032033E1207800072CD5A06958
:1015C000002816D00120DFF85C14086000F03EFA15
:1015D0000500DFF848040068800706D400F036FAFA
:1015E000401B0328F5D303201AE1012000F0F9F98C
:1015F00012E00020DFF82C14086000F027FA050044
:10160000DFF818040068800706D500F01FFA401BB9
:101610000328F5D3032003E12078400740F18E80B2
:101620000027DFF80484D8F80000C0000DD4D8F8F3
:10163000000050F08050C8F80000D8F8000010F00A
:1016400080500090009801200700DFF8E093D9F85F
:101650000000C00513D4D9F8000050F48070C9F818
:10166000000000F0F3F90500D9F80000C00506D429
:1016700000F0ECF9401B6528F6D30320D0E0E068C9
:10168000012806D1DFF8A803016851F001010160CB
:1016900025E0E06800280AD1DFF8940301684908D2
:1016A00049000160016831F00401016017E0E06861
:1016B00005280AD1DFF87803016851F004010160C0
:1016C000016851F00101016009E0DFF8640301687D
:1016D000490849000160016831F004010160E068D7
:1016E000002810D000F0B2F90500DFF844030068CC
:1016F000800719D400F0AAF9401B41F289318842D1
:10170000F3D303208CE000F0A1F90500DFF82003FB
:101710000068800708D500F099F9401B41F2893133
:101720008842F3D303207BE03800C0B2012805D102
:10173000D8F8000030F08050C8F80000E0690028B8
:101740006DD0DFF8C882D8F8000010F00C0008282F
:1017500051D0E06902283BD1DFF8D8A20020CAF8B6
:10176000000000F073F90700DFF89C92D9F8000040
:10177000800106D500F06AF9C01B0328F4D30320CA
:101780004EE0206AB0F5803F07D1D8F8001031F460
:101790000031A0680143C8F80010D8F8001031F4F7
:1017A0007411206A0143606A0143C8F800100120E7
:1017B000CAF8000000F04AF90500D9F800008001DD
:1017C0002DD400F043F9401B0328F6D3032027E073
:1017D0000020DFF86012086000F038F90500DFF83B
:1017E0002802006880011AD500F030F9401B032858
:1017F000F5D3032014E0E069012801D101200FE0B6
:10180000D8F80000060016F48030216A884204D11E
:1018100016F47010616A884201D0012000E00020B7
:10182000BDE8F6872DE9F04104000D00002C01D140
:1018300001209CE0DFF80072386810F00700A84231
:101840000BD23868C008C00028433860386810F0F0
:101850000700A84201D0012089E02078800717D531
:101860002078400705D5DFF8A401016851F4E06154
:1018700001602078000704D56448016851F4605184
:10188000016062490A6832F0F002A06802430A600F
:101890002078C00735D56068012805D15A4800680E
:1018A000800310D4012062E06068022805D1564808
:1018B0000068800107D4012059E053480068800780
:1018C00001D4012053E0DFF84481D8F800108908E2
:1018D000890060680143C8F8001000F0B7F80600FE
:1018E000D8F8000010F00C006168B0EB810F08D050
:1018F00000F0ACF8801B41F289318842F0D303201C
:1019000035E0386810F0070085420BD23868C0080F
:10191000C00028433860386810F00700A84201D0A2
:10192000012024E02078400706D538490A6832F4BF
:10193000E062E06802430A602078000707D5334878
:10194000016831F46051226951EAC201016000F07E
:1019500010F83A492D4A1268C2F30312895CC84054
:101960002C4908602C48006800F076F80020BDE89B
:10197000F081F0B585B001A83149102200F092F84D
:1019800030480088ADF8000000200021002200232C
:1019900000251E4E346814F00C07042F02D0082FC7
:1019A00002D01BE01A481AE001A8C4F38347C05DC7
:1019B0000300E0030CD568463668C6F34046805DF8
:1019C0000100134800FB03F0B0FBF1F0020003E05C
:1019D0001D4800FB03F00200100000E00C4805B0B9
:1019E000F0BD81B00B490968C9084FF47A72B1FBA8
:1019F000F2F101FB00F1009100BF00994A1E009234
:101A00000029F9D101B070470010024004100240D3
:101A100000127A0004000020000000202410024080
:101A200000004242800442421C100240007000400C
:101A3000201002406000424200200240E02B0008DB
:101A4000D02B00085E29000800093D00014800680D
:101A5000704700BF3001002010B504004FF47A70C9
:101A60000D490978B0FBF1F00C490968B1FBF0F0C1
:101A700000F005F9002801D001200CE0102C09D25B
:101A8000002221005FF0FF3000F0DDF80448046020
:101A9000002000E0012010BD08000020040000200C
:101AA00000000020103A07D330B4B1E83810103AE3
:101AB000A0E83810F9D230BC530724BFB1E80810B1
:101AC000A0E8081044BF51F8043B40F8043BD2079B
:101AD00024BF31F8022B20F8022B44BF0B7803708F
:101AE0007047121F17D35B0009D151F8043B20F84F
:101AF000023B1B0C121F20F8023BF6D20BE051F800
:101B0000043B00F8013B1B0A20F8023B1B0C121F90
:101B100000F8013BF3D238BF121D521E24BF11F84A
:101B2000013B00F8013BF8D8704730B40EE0026882
:101B3000436802440830DC0744BFA9F10104E318FC
:101B400052F8045B43F8045B091FF9D150F8041BF9
:101B50000029ECD130BC704710B410F007034B4C97
:101B600022684FF6FF010A40494951EA03210A431E
:101B7000226010BC704745480068C0F302207047DF
:101B8000010049B2002909D4012210F01F018A4046
:101B9000404903005BB25B0941F82320704710B451
:101BA000020052B2002A05D40A013B4B040064B281
:101BB0001A5508E00A01394B040064B214F00F040E
:101BC000234403F8042C10BC704770B4030013F0D6
:101BD0000704D4F10700052801D3042001E0D4F163
:101BE0000700251D072D01D2002500E0E51E012676
:101BF00016FA00F0401E0140A94016FA05F56D1EC8
:101C00002A401143080070BC704710B50400601EE4
:101C1000B0F1807F01D301200EE0601E20490860F2
:101C20000F215FF0FF30FFF7BAFF00201D49086069
:101C300007201D490860002010BD10B504002000D9
:101C4000FFF78AFF10BD2DE9F04104000D001600DA
:101C50000027FFF790FF8046320029004046FFF73B
:101C6000B4FF0100200040B2FFF799FFBDE8F0810A
:101C700010B50400200040B2FFF782FF10BD10B580
:101C800004002000FFF7C1FF10BD00000CED00E0D4
:101C90000000FA0500E100E000E400E018ED00E0DB
:101CA00014E000E018E000E010E000E010B50400EF
:101CB000002C01D101202FE094F83D00002805D12F
:101CC000002084F83C00200000F071FB022084F822
:101CD0003D00211D206800F018FA012084F846001C
:101CE000012084F83E00012084F83F00012084F8A0
:101CF0004000012084F84100012084F842000120C6
:101D000084F84300012084F84400012084F8450051
:101D1000012084F83D00002010BD2DE9F0410500B0
:101D20000C00002C02D195F83E700BE0042C02D17F
:101D300095F83F7006E0082C02D195F8407001E05C
:101D400095F84170002C02D195F842800BE0042CEC
:101D500002D195F8438006E0082C02D195F8448022
:101D600001E095F845803800C0B2012803D1404613
:101D7000C0B2012801D0012082E0002C04D1022051
:101D800085F83E00C0B211E0042C04D1022085F891
:101D90003F00C0B20AE0082C04D1022085F84000C0
:101DA000C0B203E0022085F84100C0B2002C04D18B
:101DB000022085F84200C0B211E0042C04D10220B8
:101DC00085F84300C0B20AE0082C04D1022085F84F
:101DD0004400C0B203E0022085F84500C0B22000F4
:101DE000002806D004280BD0082810D00C2815D0C5
:101DF0001BE02868C06850F002002968C86014E041
:101E00002868C06850F004002968C8600DE02868A0
:101E1000C06850F008002968C86006E02868C068FB
:101E200050F010002968C860FFE7012221002868EF
:101E300000F022FA2868134988420CD02868B0F1D3
:101E4000804F08D028681049884204D02868DFF8FD
:101E50003C1088420DD12868806810F00700060009
:101E6000062E0CD02868006850F001002968086030
:101E700005E02868006850F001002968086000202B
:101E8000BDE8F081002C0140000400400008004043
:101E900010B504002068006980071AD52068C06862
:101EA000800716D57FF002002168086101202077A5
:101EB0002068806910F0030F03D0200000F0D0FAF2
:101EC00005E0200000F032FB200000F030FB002095
:101ED00020772068006940071AD52068C06840074D
:101EE00016D57FF004002168086102202077206861
:101EF000806910F4407F03D0200000F0B1FA05E0C3
:101F0000200000F013FB200000F011FB00202077E0
:101F10002068006900071AD52068C068000716D538
:101F20007FF0080021680861042020772068C069DC
:101F300010F0030F03D0200000F092FA05E020001B
:101F400000F0F4FA200000F0F2FA00202077206878
:101F50000069C0061AD52068C068C00616D57FF093
:101F6000100021680861082020772068C06910F4FB
:101F7000407F03D0200000F073FA05E0200000F05D
:101F8000D5FA200000F0D3FA0020207720680069FD
:101F9000C0070AD52068C068C00706D57FF00100D9
:101FA00021680861200000F0C3FA2068006900067B
:101FB0000AD52068C068000606D57FF08000216839
:101FC0000861200000F0B5FA2068006940060AD5D3
:101FD0002068C068400606D57FF04000216808618F
:101FE000200000F0A7FA2068006980060AD5206862
:101FF000C068800606D57FF02000216808612000B7
:1020000000F099FA10BD70B505000E00140095F8A7
:102010003C00012801D1022059E0012085F83C0054
:10202000002C12D1F36872683168286800F09FF8BC
:102030002868806930F00C00296888612868816907
:10204000B0680143286881613DE0042C13D1F36836
:1020500072683168286800F0BFF82868806930F439
:1020600040602968886128688069B16850EA012069
:102070002968886127E0082C12D1F36872683168FA
:10208000286800F0C4F82868C06930F00C0029689E
:10209000C8612868C169B06801432868C16112E05D
:1020A000F36872683168286800F0CBF82868C06966
:1020B00030F440602968C8612868C069B16850EA96
:1020C00001202968C861002085F83C00002070BD0F
:1020D000020000200B00002B06D0042B08D0082B98
:1020E0000AD00C2B0CD00FE013685B6B18000BE0D0
:1020F00013689B6B180007E01368DB6B180003E0A4
:1021000013681B6C1800FFE7704710B403682F4C6E
:10211000A04208D0B0F1804F05D02D4A904202D0A5
:102120002C4A904203D133F070034A681343A04213
:1021300008D0B0F1804F05D0254A904202D0254A00
:10214000904203D133F44073CA68134333F08003E1
:102150004A69134303608A68C2620A688262A042C5
:1021600001D10A6902630122426110BC704770B458
:10217000046A6408640004628569066A134CA0421C
:1021800008D0B0F1804F05D0114CA04202D0114CC4
:10219000A04201D1012400E00024E4B2002C03D0CD
:1021A000AD08AD00154301E055F0010535F0F0052F
:1021B0001C0114F0F004254336F00A0611F00A045D
:1021C00026438561066270BC70470000002C014008
:1021D000000400400008004070B4046A34F01004A9
:1021E00004628469056A34F4407454EA022434F4C5
:1021F00070441E0316F47046344335F0A0050E01FA
:1022000016F0A00635438461056270BC704770B457
:10221000046A34F480740462C469056AA408A400E2
:10222000144334F0F0041E0116F0F006344335F484
:1022300000750E0216F400763543C461056270BC69
:10224000704770B4046A34F480540462C469056A47
:1022500034F4407454EA022434F470441E0316F437
:102260007046344335F400550E0316F400563543DA
:10227000C461056270BC704730B4012411F01F03C3
:1022800014FA03F3046A9C430462046A11F01F0504
:1022900012FA05F52C43046230BC704730B58BB0A0
:1022A0000822002108A800F047F91022002104A804
:1022B00000F042F9904C9148206048206060002076
:1022C000A0604FF6FF70E060002020610020606198
:1022D0000020A0612000FFF7E9FC002800D0FEE705
:1022E000002008900020099008A9200000F02EF995
:1022F000002800D0FEE70020049001200590002077
:10230000069000200790002204A92000FFF77BFE22
:10231000002800D0FEE7022004900220059004224D
:1023200004A92000FFF76FFE002800D0FEE710226E
:102330000021684600F000F97148016851F004017D
:102340000160006810F004000A900A984FF40070D1
:102350000090012001900020029002200390694D1E
:102360006946280000F030F901224FF4007128007E
:1023700000F039FA4FF4806000906348019000202B
:1023800002906946280000F01FF90122012128204F
:10239000FFF759FC2820FFF76BFC00212000FFF716
:1023A000BCFC04212000FFF7B8FC0BB030BD18B511
:1023B00085B004001022002101A800F0BDF82068BB
:1023C0004E49884225D14E48016851F400610160B0
:1023D000016811F4006100910099016851F0040155
:1023E0000160006810F00400009000984FF48070C5
:1023F0000190002002900020039001A9414800F0C4
:10240000E3F8002200211B20FFF71DFC1B20FFF733
:102410002FFC06B010BD38B50400200080B2B0F526
:10242000806F1CD139490A78394800780243D2B20A
:10243000002A14D101200870324D00224FF400719F
:10244000280000F0D0F90020B0F5FA6F01D2401C4E
:10245000FAE701224FF40071280000F0C4F931BD01
:10246000F8B504002B480168491C0160207F012851
:102470000DD12648007801283CD100212000FFF72B
:1024800027FE2549086001202149087032E0207F9D
:1024900002282FD11E4D287801282BD11B4E3078D1
:1024A000012827D11D4F04212000FFF711FE3860BD
:1024B000194801683A68914205D239680068091ADA
:1024C0001748016006E001683868411A11F580314B
:1024D0001348016012480068400800F0B1F9114942
:1024E00000F0BCF900F026FA0F4908800020307097
:1024F00000202870F1BD000060000020002C014089
:102500001810024000080140000021104601002080
:102510004701002034010020380100203C01002048
:1025200040010020287E0C3D440100207047704788
:10253000704770477047704710B5044610460A460A
:102540000146204600F00CFA204610BD30B40200CF
:1025500092F83C00012801D102202CE0012082F8F1
:102560003C00022082F83D001068436810688468CF
:1025700033F07003086803431068436010680F4D20
:10258000A8420BD01068B0F1804F07D010680C4DF6
:10259000A84203D010680B4DA84205D134F0800446
:1025A0004868044310688460012082F83D000020E0
:1025B00082F83C00002030BC70470000002C014035
:1025C00000040040000800402DE9F84703005FF0D8
:1025D000000E5FF00008086830FA0EF0002800F0E6
:1025E0000081012010FA0EF0040008682040050068
:1025F000A54240F0F3804868002831D0012820D05F
:10260000022825D003283CD011281DD0122823D021
:10261000DFF8ECC1604523D0DFF8E8C160451FD08A
:10262000DFF8E4C160451BD0DFF8E0C1604517D09A
:10263000DFF8DCC1604513D0DFF8D8C160450FD0AA
:1026400022E0C86880461FE0C868001D80461BE085
:10265000C8680830804617E0C8680C30804613E030
:102660008868002802D10420804609E08868012893
:1026700003D1082080461C6102E0082080465C618E
:1026800002E000208046FFE7B5F5807F01D21E0002
:1026900000E01E1DB5F5807F02D25FEA8E0702E0E2
:1026A000BEF10807BF005FF00F09D6F800C019FAA5
:1026B00007F03CEA000C18FA07F050EA0C0CC6F8D8
:1026C00000C04868C00040F189805348D0F800C07D
:1026D0005CF0010CC0F800C0006810F00100009030
:1026E0000098DFF838C1704680085CF820A01EF022
:1026F0000300C0B2800019FA00F93AEA090A484812
:10270000834202D15FF0000913E04648834202D1C0
:102710005FF001090DE04448834202D15FF00209F5
:1027200007E04248834202D15FF0030901E05FF015
:1027300004091EF00300C0B2800019FA00F95246E5
:1027400059EA0202704680084CF820204868C0030D
:1027500007D53748D0F800C055EA0C0CC0F800C0C7
:1027600006E03348D0F800C03CEA050CC0F800C0D1
:102770004868800307D52F48D0F800C055EA0C0CF4
:10278000C0F800C006E02B48D0F800C03CEA050CB9
:10279000C0F800C04868C00207D52748D0F800C07C
:1027A00055EA0C0CC0F800C006E02348D0F800C081
:1027B0003CEA050CC0F800C04868800207D51F48F5
:1027C000D0F800C055EA0C0CC0F800C006E01B4869
:1027D000D0F800C03CEA050CC0F800C01EF1010EA4
:1027E000F9E6BDE8F1871300DBB2002B03D00B0044
:1027F0009BB2036103E00B009BB21B0403617047B3
:102800000000111000001210000021100000221022
:102810000000311000003210181002400800014082
:1028200000080140000C014000100140001401406C
:102830000004014004040140080401400C0401406C
:1028400000280AD0B0FA80F18840D1F19D01C90575
:10285000020672F1004241EB10207047FF2212EA9B
:10286000D05C1DBF12EAD153944593422BE09C44A7
:10287000D30780EA01021A4043EA002043EA01211B
:10288000A1FB0030C04238BF40007CF17F010BDB70
:10289000FE294ADA5B0842EAC15153EA006373F148
:1028A000004C51EB10207047D1F1080CDCF12001F5
:1028B0002FDB5B0810FA01F10B4320FA0CF073F1E7
:1028C00000415041704794451CBF02EAD1539342E6
:1028D00080EA010202F000421DD0400019D04900F8
:1028E00017D05BB9634514D00902B1FA81F399405E
:1028F000BCEB030CC00140F00040C1E70002B0FA9D
:1029000080FC10FA0CF0B3EB0C0CC90141F0004153
:10291000B6E71000704740000AD0490008D010F117
:10292000807F94BF11F1807F02E042F0FF4070474A
:10293000D0437047C0F3C7517E390EDDC217D1F1C5
:10294000200106DD000240F00040C8401044504025
:102950007047D04380F0004070470020704701026C
:1029600062F30F2262F31F42401810F0030308D0F5
:10297000C91A1FD3DB0748BF00F8012D28BF20F874
:10298000022D130030B414461546103928BF20E933
:102990003C00FAD8490728BF20E90C0048BF40F89E
:1029A000042D890028BF20F8022D48BF00F8012D12
:1029B00030BC7047C91818BF00F8012DCB0728BFDD
:1029C00000F8012D704780B500F03AF800F003F8E8
:1029D000FFF764FCFEE700B58FB02822002105A8B0
:1029E000FFF7AAFD142200216846FFF7A5FD01208C
:1029F00005905FF480300690002107910121099134
:102A000002210C910D905FF4E0100E9005A8FEF7E6
:102A100009FD002800D0FEE70F2000900220019061
:102A2000002002904FF48060039000200490022167
:102A30006846FEF7F7FE002800D0FEE70FB000BDA5
:102A400080B50748016851F0100101600320FFF7CD
:102A5000F4F80020FFF700F800F004F8002002BDB1
:102A60000020024081B00F48016851F0010101606F
:102A7000016811F00101009100990B490A6852F0B8
:102A800080520A60096811F0805100910099016834
:102A900051F020010160006810F0200000900098C3
:102AA00001B07047181002401C100240FEE7FEE71C
:102AB000FEE7FEE7FEE770477047704780B500F01D
:102AC00031F801BD80B51248FEF7C6FB01BD80B5E7
:102AD0001048FEF7C1FB01BD80B50F48FDF706FBAE
:102AE00001BD80B50C48FDF7E0FB01BD80B50B488A
:102AF0000168490506D54FF4806101604FF480609C
:102B0000FFF789FC01BD80B50548FFF7C1F901BD9C
:102B1000EC000020A80000200C000020140401405C
:102B20006000002003490A680348007882180A60A0
:102B3000704700BF300100200800002010B5074991
:102B400079441831064C7C44163404E00A68081DA8
:102B5000114488470146A142F8D110BD0800000089
:102B60002800000087E8FFFF3C0100000C00002067
:102B700000000000B7EFFFFF0C0000009000000015
:102B8000000000200000000000F00DF8002801D037
:102B9000FFF7D4FFAFF300800020AFF30080FFF712
:102BA00012FF00F002F80120704700F001B80000A9
:102BB0000746384600F002F8FBE7000080B5AFF3A7
:102BC0000080024A11001820ABBEFBE7260002007D
:102BD00002030405060708090A0B0C0D0E0F10105E
:102BE00000000000000000000102030406070809BD
:102BF0000148804701480047AD2C0008012C00081F
:102C0000AFF30080AFF30080FFF7BEFF10000000BD
:102C10000024F40001000000FFF7FEBFFFF7FEBF35
:102C2000FFF7FEBFFFF7FEBFFFF7FEBFFFF7FEBFD8
:102C3000FFF7FEBFFFF7FEBFFFF7FEBFFFF7FEBFC8
:102C4000FFF7FEBFFFF7FEBFFFF7FEBFFFF7FEBFB8
:102C5000FFF7FEBFFFF7FEBFFFF7FEBFFFF7FEBFA8
:102C6000FFF7FEBFFFF7FEBFFFF7FEBFFFF7FEBF98
:102C7000FFF7FEBFFFF7FEBFFFF7FEBFFFF7FEBF88
:102C8000FFF7FEBFFFF7FEBFFFF7FEBFFFF7FEBF78
:102C9000FFF7FEBFFFF7FEBFFFF7FEBFFFF7FEBF68
:0E2CA000FFF7FEBFFFF7FEBFFFF7FEBF704756
:0400000508002C01C2
:00000001FF
